{
  "_format": "hh-sol-artifact-1",
  "contractName": "Poll",
  "sourceName": "contracts/Poll.sol",
  "abi": [
    {
      "inputs": [],
      "stateMutability": "nonpayable",
      "type": "constructor"
    },
    {
      "inputs": [],
      "name": "deployedAt",
      "outputs": [
        {
          "internalType": "uint256",
          "name": "",
          "type": "uint256"
        }
      ],
      "stateMutability": "view",
      "type": "function"
    },
    {
      "inputs": [],
      "name": "expiresAt",
      "outputs": [
        {
          "internalType": "uint256",
          "name": "",
          "type": "uint256"
        }
      ],
      "stateMutability": "view",
      "type": "function"
    },
    {
      "inputs": [
        {
          "internalType": "uint256",
          "name": "",
          "type": "uint256"
        }
      ],
      "name": "questions",
      "outputs": [
        {
          "internalType": "uint256",
          "name": "id",
          "type": "uint256"
        },
        {
          "internalType": "string",
          "name": "prompt",
          "type": "string"
        },
        {
          "internalType": "uint256",
          "name": "yesVoteCount",
          "type": "uint256"
        },
        {
          "internalType": "uint256",
          "name": "noVoteCount",
          "type": "uint256"
        }
      ],
      "stateMutability": "view",
      "type": "function"
    },
    {
      "inputs": [],
      "name": "questionsCount",
      "outputs": [
        {
          "internalType": "uint256",
          "name": "",
          "type": "uint256"
        }
      ],
      "stateMutability": "view",
      "type": "function"
    },
    {
      "inputs": [
        {
          "internalType": "bool[]",
          "name": "questionVotes",
          "type": "bool[]"
        }
      ],
      "name": "vote",
      "outputs": [],
      "stateMutability": "nonpayable",
      "type": "function"
    },
    {
      "inputs": [
        {
          "internalType": "address",
          "name": "",
          "type": "address"
        }
      ],
      "name": "voters",
      "outputs": [
        {
          "internalType": "bool",
          "name": "",
          "type": "bool"
        }
      ],
      "stateMutability": "view",
      "type": "function"
    }
  ],
  "bytecode": "0x60806040523480156200001157600080fd5b50620000586040518060400160405280601581526020017f497320576562332e3020746865206675747572653f0000000000000000000000815250620000d160201b60201c565b620000826040518060600160405280602381526020016200112460239139620000d160201b60201c565b620000ac604051806060016040528060288152602001620010d460289139620000d160201b60201c565b4260008190555061012c600054620000c5919062000304565b600181905550620007e6565b620000fe604051806060016040528060298152602001620010ab60299139600454620001bb60201b60201c565b6004600081548092919062000113906200033f565b919050555060405180608001604052806004548152602001828152602001600081526020016000815250600260006004548152602001908152602001600020600082015181600001556020820151816001019081620001739190620005fc565b506040820151816002015560608201518160030155905050620001b8604051806060016040528060288152602001620010fc60289139600454620001bb60201b60201c565b50565b6200025d8282604051602401620001d492919062000783565b6040516020818303038152906040527fb60e72cc000000000000000000000000000000000000000000000000000000007bffffffffffffffffffffffffffffffffffffffffffffffffffffffff19166020820180517bffffffffffffffffffffffffffffffffffffffffffffffffffffffff83818316178352505050506200026160201b60201c565b5050565b6200028781620002826200028a60201b620003ac17620002ab60201b60201c565b60201c565b50565b60006a636f6e736f6c652e6c6f679050600080835160208501845afa505050565b620002bf60201b620003cd17819050919050565b620002c9620007b7565b565b6000819050919050565b7f4e487b7100000000000000000000000000000000000000000000000000000000600052601160045260246000fd5b60006200031182620002cb565b91506200031e83620002cb565b9250828201905080821115620003395762000338620002d5565b5b92915050565b60006200034c82620002cb565b91507fffffffffffffffffffffffffffffffffffffffffffffffffffffffffffffffff8203620003815762000380620002d5565b5b600182019050919050565b600081519050919050565b7f4e487b7100000000000000000000000000000000000000000000000000000000600052604160045260246000fd5b7f4e487b7100000000000000000000000000000000000000000000000000000000600052602260045260246000fd5b600060028204905060018216806200040e57607f821691505b602082108103620004245762000423620003c6565b5b50919050565b60008190508160005260206000209050919050565b60006020601f8301049050919050565b600082821b905092915050565b6000600883026200048e7fffffffffffffffffffffffffffffffffffffffffffffffffffffffffffffffff826200044f565b6200049a86836200044f565b95508019841693508086168417925050509392505050565b6000819050919050565b6000620004dd620004d7620004d184620002cb565b620004b2565b620002cb565b9050919050565b6000819050919050565b620004f983620004bc565b620005116200050882620004e4565b8484546200045c565b825550505050565b600090565b6200052862000519565b62000535818484620004ee565b505050565b5b818110156200055d57620005516000826200051e565b6001810190506200053b565b5050565b601f821115620005ac5762000576816200042a565b62000581846200043f565b8101602085101562000591578190505b620005a9620005a0856200043f565b8301826200053a565b50505b505050565b600082821c905092915050565b6000620005d160001984600802620005b1565b1980831691505092915050565b6000620005ec8383620005be565b9150826002028217905092915050565b62000607826200038c565b67ffffffffffffffff81111562000623576200062262000397565b5b6200062f8254620003f5565b6200063c82828562000561565b600060209050601f8311600181146200067457600084156200065f578287015190505b6200066b8582620005de565b865550620006db565b601f19841662000684866200042a565b60005b82811015620006ae5784890151825560018201915060208501945060208101905062000687565b86831015620006ce5784890151620006ca601f891682620005be565b8355505b6001600288020188555050505b505050505050565b600082825260208201905092915050565b60005b8381101562000714578082015181840152602081019050620006f7565b60008484015250505050565b6000601f19601f8301169050919050565b60006200073e826200038c565b6200074a8185620006e3565b93506200075c818560208601620006f4565b620007678162000720565b840191505092915050565b6200077d81620002cb565b82525050565b600060408201905081810360008301526200079f818562000731565b9050620007b0602083018462000772565b9392505050565b7f4e487b7100000000000000000000000000000000000000000000000000000000600052605160045260246000fd5b6108b580620007f66000396000f3fe608060405234801561001057600080fd5b50600436106100625760003560e01c806331b1b97814610067578063523d53221461009a5780637c1fb3c3146100b65780638622a689146100d4578063a3ec138d146100f2578063eae4c19f14610122575b600080fd5b610081600480360381019061007c9190610417565b610140565b60405161009194939291906104e3565b60405180910390f35b6100b460048036038101906100af9190610594565b6101f8565b005b6100be61037a565b6040516100cb91906105e1565b60405180910390f35b6100dc610380565b6040516100e991906105e1565b60405180910390f35b61010c6004803603810190610107919061065a565b610386565b60405161011991906106a2565b60405180910390f35b61012a6103a6565b60405161013791906105e1565b60405180910390f35b6002602052806000526040600020600091509050806000015490806001018054610169906106ec565b80601f0160208091040260200160405190810160405280929190818152602001828054610195906106ec565b80156101e25780601f106101b7576101008083540402835291602001916101e2565b820191906000526020600020905b8154815290600101906020018083116101c557829003601f168201915b5050505050908060020154908060030154905084565b600360003373ffffffffffffffffffffffffffffffffffffffff1673ffffffffffffffffffffffffffffffffffffffff16815260200190815260200160002060009054906101000a900460ff161561024f57600080fd5b600154421061025d57600080fd5b6000600190505b600454811161031d57600115158383600184610280919061074c565b8181106102905761028f610780565b5b90506020020160208101906102a591906107db565b1515036102dd576002600082815260200190815260200160002060020160008154809291906102d390610808565b919050555061030a565b60026000828152602001908152602001600020600301600081548092919061030490610808565b91905055505b808061031590610808565b915050610264565b506001600360003373ffffffffffffffffffffffffffffffffffffffff1673ffffffffffffffffffffffffffffffffffffffff16815260200190815260200160002060006101000a81548160ff0219169083151502179055505050565b60045481565b60015481565b60036020528060005260406000206000915054906101000a900460ff1681565b60005481565b60006a636f6e736f6c652e6c6f679050600080835160208501845afa505050565b6103d5610850565b565b600080fd5b600080fd5b6000819050919050565b6103f4816103e1565b81146103ff57600080fd5b50565b600081359050610411816103eb565b92915050565b60006020828403121561042d5761042c6103d7565b5b600061043b84828501610402565b91505092915050565b61044d816103e1565b82525050565b600081519050919050565b600082825260208201905092915050565b60005b8381101561048d578082015181840152602081019050610472565b60008484015250505050565b6000601f19601f8301169050919050565b60006104b582610453565b6104bf818561045e565b93506104cf81856020860161046f565b6104d881610499565b840191505092915050565b60006080820190506104f86000830187610444565b818103602083015261050a81866104aa565b90506105196040830185610444565b6105266060830184610444565b95945050505050565b600080fd5b600080fd5b600080fd5b60008083601f8401126105545761055361052f565b5b8235905067ffffffffffffffff81111561057157610570610534565b5b60208301915083602082028301111561058d5761058c610539565b5b9250929050565b600080602083850312156105ab576105aa6103d7565b5b600083013567ffffffffffffffff8111156105c9576105c86103dc565b5b6105d58582860161053e565b92509250509250929050565b60006020820190506105f66000830184610444565b92915050565b600073ffffffffffffffffffffffffffffffffffffffff82169050919050565b6000610627826105fc565b9050919050565b6106378161061c565b811461064257600080fd5b50565b6000813590506106548161062e565b92915050565b6000602082840312156106705761066f6103d7565b5b600061067e84828501610645565b91505092915050565b60008115159050919050565b61069c81610687565b82525050565b60006020820190506106b76000830184610693565b92915050565b7f4e487b7100000000000000000000000000000000000000000000000000000000600052602260045260246000fd5b6000600282049050600182168061070457607f821691505b602082108103610717576107166106bd565b5b50919050565b7f4e487b7100000000000000000000000000000000000000000000000000000000600052601160045260246000fd5b6000610757826103e1565b9150610762836103e1565b925082820390508181111561077a5761077961071d565b5b92915050565b7f4e487b7100000000000000000000000000000000000000000000000000000000600052603260045260246000fd5b6107b881610687565b81146107c357600080fd5b50565b6000813590506107d5816107af565b92915050565b6000602082840312156107f1576107f06103d7565b5b60006107ff848285016107c6565b91505092915050565b6000610813826103e1565b91507fffffffffffffffffffffffffffffffffffffffffffffffffffffffffffffffff82036108455761084461071d565b5b600182019050919050565b7f4e487b7100000000000000000000000000000000000000000000000000000000600052605160045260246000fdfea2646970667358221220cf47d0dca4ab778e8cfca2e52245a2c47341bb45b1dc41a8719b90ae9b681ef864736f6c63430008130033436f756e74206265666f7265206164646974696f6e206f66206e6577207175657374696f6e3a20257341726520796f7520726561647920746f2063726561746520796f757220666972737420644170703f436f756e74206166746572206164646974696f6e206f66206e6577207175657374696f6e3a2025734973206c6561726e696e672061626f757420576562332e30207465636820656173793f",
  "linkReferences": {},
  "deployedLinkReferences": {}
}